:020000040800F2
:1000000000800220C502000815030008150300083F
:100010001503000815030008150300080000000080
:1000200000000000000000000000000015030008B0
:100030000000000000000000150300081503000880
:100040001503000815030008150300081503000830
:100050001503000815030008150300081503000820
:100060001503000815030008150300081503000810
:100070001503000815030008150300081503000800
:1000800015030008150300081503000815030008F0
:1000900015030008150300081503000815030008E0
:1000A00015030008150300081503000815030008D0
:1000B00015030008150300081503000815030008C0
:1000C00015030008150300081503000815030008B0
:1000D00015030008150300081503000815030008A0
:1000E0001503000815030008150300081503000890
:1000F0001503000815030008150300081503000880
:10010000150300081503000815030008150300086F
:10011000150300081503000815030008150300085F
:10012000150300081503000815030008150300084F
:10013000150300081503000815030008150300083F
:10014000150300081503000815030008150300082F
:10015000150300081503000815030008150300081F
:0C01600015030008150300081503000833
:10016C0010B5054C237833B9044B13B10448AFF3E5
:10017C0000800123237010BD04000020000000004B
:10018C001803000808B5034B1BB103490348AFF330
:10019C00008008BD000000000800002018030008C3
:1001AC0070B50D4D0D4C641BA4100026A64209D150
:1001BC000B4D0C4C00F0AAF8641BA4100026A642B0
:1001CC0005D170BD55F8043B98470136EEE755F85C
:1001DC00043B98470136F2E730030008300300086F
:1001EC00300300083803000870477047024B13B106
:1001FC00024800F005B87047000000001902000822
:10020C00002301461A46184600F014B838B5074DBD
:10021C00074C641BA4101CB9BDE8384000F07CB836
:10022C00013C55F824309847F5E700BF3803000827
:10023C003C0300082DE9F047DFF874A00646DAF815
:10024C00000098460F469146FFF7CEFF164B1C68F0
:10025C000CB9164C1C606568DAF800001F2D05DD22
:10026C00FFF7C3FF4FF0FF30BDE8F0879EB104EB02
:10027C0085010122C1F88890D4F88831AA40134333
:10028C00C4F88831022EC1F8088102BFD4F88C3131
:10029C001343C4F88C316B1C0235636044F8257031
:1002AC00FFF7A3FF0020DFE7240000202800002038
:1002BC0000000020FEE700000D488546AFF30080EB
:1002CC000C480D490D4A002302E0D458C4500433A5
:1002DC00C4188C42F9D30A4A0A4C002301E013607B
:1002EC000432A242FBD3FFF75BFFFFF7E3FFFEE70D
:1002FC000080022000000020040000203C030008C5
:10030C0004000020B8010020FEE70000F8B500BF93
:10031C00F8BC08BC9E467047F8B500BFF8BC08BCDA
:04032C009E46704732
:08033000F90100089101000829
:040338006D0100084B
:04033C00200000207D
:04000005080002C528
:00000001FF
